{
  "contractName": "SimpleStorage",
  "abi": [
    {
      "inputs": [
        {
          "internalType": "string",
          "name": "x",
          "type": "string"
        }
      ],
      "name": "set",
      "outputs": [],
      "stateMutability": "nonpayable",
      "type": "function"
    },
    {
      "inputs": [],
      "name": "get",
      "outputs": [
        {
          "internalType": "string",
          "name": "",
          "type": "string"
        }
      ],
      "stateMutability": "view",
      "type": "function",
      "constant": true
    }
  ],
  "bytecode": "0x608060405234801561001057600080fd5b50610310806100206000396000f3fe608060405234801561001057600080fd5b50600436106100365760003560e01c80634ed3885e1461003b5780636d4ce63c146100f6575b600080fd5b6100f46004803603602081101561005157600080fd5b810190808035906020019064010000000081111561006e57600080fd5b82018360208201111561008057600080fd5b803590602001918460018302840111640100000000831117156100a257600080fd5b91908080601f016020809104026020016040519081016040528093929190818152602001838380828437600081840152601f19601f820116905080830192505050505050509192919290505050610179565b005b6100fe610193565b6040518080602001828103825283818151815260200191508051906020019080838360005b8381101561013e578082015181840152602081019050610123565b50505050905090810190601f16801561016b5780820380516001836020036101000a031916815260200191505b509250505060405180910390f35b806000908051906020019061018f929190610235565b5050565b606060008054600181600116156101000203166002900480601f01602080910402602001604051908101604052809291908181526020018280546001816001161561010002031660029004801561022b5780601f106102005761010080835404028352916020019161022b565b820191906000526020600020905b81548152906001019060200180831161020e57829003601f168201915b5050505050905090565b828054600181600116156101000203166002900490600052602060002090601f016020900481019282601f1061027657805160ff19168380011785556102a4565b828001600101855582156102a4579182015b828111156102a3578251825591602001919060010190610288565b5b5090506102b191906102b5565b5090565b6102d791905b808211156102d35760008160009055506001016102bb565b5090565b9056fea264697066735822122055cf295a9f35c5d0505c6508e85e987b8cb03df132507f908954e22cbef9f2ce64736f6c63430006000033",
  "source": "// SPDX-License-Identifier: MIT\npragma solidity >=0.4.21 <0.7.0;\n\nimport \"@openzeppelin/contracts/math/SafeMath.sol\";\nimport \"@openzeppelin/contracts/token/ERC20/ERC20.sol\";\n\n\ncontract SimpleStorage {\n\n     string ipfsHash;\n\n    function set(string memory x) public {\n        ipfsHash = x;\n    }\n\n    function get() public view returns (string memory) {\n        return ipfsHash;\n    }\n\n//     // Private state variable \n//     address payable owner;  \n\n//      // Defining a constructor    \n//      constructor() public{    \n//         owner=msg.sender; \n//     } \n  \n//     // Function to get  \n//     // address of owner \n//     function getOwner( \n//     ) public view returns (address) {     \n//         return owner; \n//     } \n  \n//     // Function to return  \n//     // current balance of owner \n//     function getBalance( \n//     ) public view returns(uint256){ \n//         return owner.balance; \n//     } \n\n//     modifier onlyOwner {\n//         require(\n//             msg.sender == owner,\n//             \"Only owner can call this function.\"\n//         );\n//         _;\n//     }\n\n\n\n    \n\n\n// //Using SafeMath\n//   using SafeMath for uint;\n//     function exec(uint a, uint b) public pure returns (uint){\n//         return a.add(b);\n//     }\n \n \n//   //security features to protect \n\n//   mapping (address => uint256) public balanceOf;\n\n//   function transfer(address _to, uint256 _value) public {\n//     /* Check if sender has balance and for overflows */\n//     require(balanceOf[msg.sender] >= _value && balanceOf[_to] + _value >= balanceOf[_to]);\n\n//     /* Add and subtract new balances */\n//     balanceOf[msg.sender] -= _value;\n//     balanceOf[_to] += _value;\n// }\n\n//      // Reentrancy \n//     mapping (address => uint) private userBalances;\n\n//     function withdrawBalance() public {\n//     uint amountToWithdraw = userBalances[msg.sender];\n//     userBalances[msg.sender] = 0;\n//     (bool success, ) = msg.sender.call.value(amountToWithdraw)(\"\"); // The user's balance is already 0, so future invocations won't withdraw anything\n//     require(success);\n//     }\n\n\n//     // Used by Circuit Breaker pattern to switch contract on / off\n//     bool private stopped = false;\n\n//     /**\n//     * @dev Indicates that the owner has performed an emergency stop\n//     * @param _owner The owner of the image\n//     * @param _stop Indicates whether to stop or resume\n//     */\n//     event LogEmergencyStop(\n//         address indexed _owner, \n//         bool _stop\n//     );\n\n//     /**\n//     * @dev Prevents execution in the case of an emergency\n//     */\n//     modifier stopInEmergency { \n//         require(!stopped); \n//         _;\n//     }\n\n\n//      /**\n//     * @notice Pause the contract. \n//     * It stops execution if certain conditions are met and can be useful \n//     * when new errors are discovered. \n//     * @param _stop Switch the circuit breaker on or off\n//     */\n\n//     function emergencyStop(bool _stop) onlyOwner public {\n//         stopped = _stop;\n//         emit LogEmergencyStop(owner, _stop);\n//     }\n}\n",
  "sourcePath": "/home/jhanagustave/Blockchain/projectBlockchain/contracts/SimpleStorage.sol",
  "compiler": {
    "name": "solc",
    "version": "0.6.0+commit.26b70077.Emscripten.clang"
  },
  "schemaVersion": "3.3.3",
  "updatedAt": "2020-12-31T14:39:12.823Z",
  "networkType": "ethereum",
  "devdoc": {
    "methods": {}
  },
  "userdoc": {
    "methods": {}
  }
}